{
  "address": "0xcbD2609352093E42769077b1c689bedc55d3cD60",
  "abi": [
    {
      "inputs": [
        {
          "internalType": "address",
          "name": "vrfCoordinatorV2",
          "type": "address"
        },
        {
          "internalType": "uint64",
          "name": "subscriptionId",
          "type": "uint64"
        },
        {
          "internalType": "bytes32",
          "name": "gasLane",
          "type": "bytes32"
        },
        {
          "internalType": "uint32",
          "name": "callbackGasLimit",
          "type": "uint32"
        }
      ],
      "stateMutability": "nonpayable",
      "type": "constructor"
    },
    {
      "inputs": [
        {
          "internalType": "address",
          "name": "have",
          "type": "address"
        },
        {
          "internalType": "address",
          "name": "want",
          "type": "address"
        }
      ],
      "name": "OnlyCoordinatorCanFulfill",
      "type": "error"
    },
    {
      "anonymous": false,
      "inputs": [
        {
          "indexed": true,
          "internalType": "address",
          "name": "entrant",
          "type": "address"
        },
        {
          "indexed": true,
          "internalType": "uint256",
          "name": "sweepStakeIndex",
          "type": "uint256"
        }
      ],
      "name": "NewEntrantJoinedSweepStake",
      "type": "event"
    },
    {
      "anonymous": false,
      "inputs": [
        {
          "indexed": true,
          "internalType": "address",
          "name": "createdBy",
          "type": "address"
        },
        {
          "indexed": true,
          "internalType": "uint256",
          "name": "sweepStakeIndex",
          "type": "uint256"
        }
      ],
      "name": "NewSweepStakeAdded",
      "type": "event"
    },
    {
      "anonymous": false,
      "inputs": [
        {
          "indexed": true,
          "internalType": "address",
          "name": "winnerAddress",
          "type": "address"
        },
        {
          "indexed": true,
          "internalType": "uint256",
          "name": "amount",
          "type": "uint256"
        },
        {
          "indexed": true,
          "internalType": "uint256",
          "name": "sweepStakeIndex",
          "type": "uint256"
        }
      ],
      "name": "SweepStakeTransferToWinnerSuccess",
      "type": "event"
    },
    {
      "anonymous": false,
      "inputs": [
        {
          "indexed": true,
          "internalType": "uint256",
          "name": "amount",
          "type": "uint256"
        },
        {
          "indexed": true,
          "internalType": "uint256",
          "name": "sweepStakeIndex",
          "type": "uint256"
        }
      ],
      "name": "SweepStakeWinnersPicked",
      "type": "event"
    },
    {
      "anonymous": false,
      "inputs": [
        {
          "indexed": true,
          "internalType": "uint256",
          "name": "requestId",
          "type": "uint256"
        },
        {
          "indexed": true,
          "internalType": "uint256",
          "name": "sweepStakeIndex",
          "type": "uint256"
        }
      ],
      "name": "SweepStakeWinnersRequested",
      "type": "event"
    },
    {
      "inputs": [
        {
          "internalType": "address",
          "name": "_token",
          "type": "address"
        }
      ],
      "name": "addAllowedTokens",
      "outputs": [],
      "stateMutability": "nonpayable",
      "type": "function"
    },
    {
      "inputs": [],
      "name": "addressBalance",
      "outputs": [
        {
          "internalType": "uint256",
          "name": "",
          "type": "uint256"
        }
      ],
      "stateMutability": "view",
      "type": "function"
    },
    {
      "inputs": [
        {
          "internalType": "address",
          "name": "_token",
          "type": "address"
        }
      ],
      "name": "checkIfTokenIsSupported",
      "outputs": [
        {
          "internalType": "bool",
          "name": "",
          "type": "bool"
        }
      ],
      "stateMutability": "view",
      "type": "function"
    },
    {
      "inputs": [
        {
          "internalType": "bytes",
          "name": "",
          "type": "bytes"
        }
      ],
      "name": "checkUpkeep",
      "outputs": [
        {
          "internalType": "bool",
          "name": "upkeepNeeded",
          "type": "bool"
        },
        {
          "internalType": "bytes",
          "name": "performData",
          "type": "bytes"
        }
      ],
      "stateMutability": "view",
      "type": "function"
    },
    {
      "inputs": [
        {
          "internalType": "uint32",
          "name": "_maximumNoOfWinners",
          "type": "uint32"
        },
        {
          "internalType": "uint256",
          "name": "_startDateTime",
          "type": "uint256"
        },
        {
          "internalType": "uint256",
          "name": "_endDateTime",
          "type": "uint256"
        },
        {
          "internalType": "uint256",
          "name": "_amount",
          "type": "uint256"
        },
        {
          "internalType": "string",
          "name": "_title",
          "type": "string"
        },
        {
          "internalType": "address",
          "name": "_token",
          "type": "address"
        }
      ],
      "name": "createSweepStake",
      "outputs": [],
      "stateMutability": "nonpayable",
      "type": "function"
    },
    {
      "inputs": [],
      "name": "getAllAllowedTokens",
      "outputs": [
        {
          "internalType": "address[]",
          "name": "",
          "type": "address[]"
        }
      ],
      "stateMutability": "view",
      "type": "function"
    },
    {
      "inputs": [],
      "name": "getAllSweepStakes",
      "outputs": [
        {
          "components": [
            {
              "internalType": "uint32",
              "name": "maximumNoOfWinners",
              "type": "uint32"
            },
            {
              "internalType": "uint256",
              "name": "numberOfEntrants",
              "type": "uint256"
            },
            {
              "internalType": "uint256",
              "name": "startDateTime",
              "type": "uint256"
            },
            {
              "internalType": "uint256",
              "name": "endDateTime",
              "type": "uint256"
            },
            {
              "internalType": "uint256",
              "name": "amount",
              "type": "uint256"
            },
            {
              "internalType": "address",
              "name": "token",
              "type": "address"
            },
            {
              "internalType": "string",
              "name": "title",
              "type": "string"
            },
            {
              "internalType": "bool",
              "name": "isActive",
              "type": "bool"
            },
            {
              "internalType": "address[]",
              "name": "entrants",
              "type": "address[]"
            }
          ],
          "internalType": "struct SweepStake.SingleSweepStake[]",
          "name": "",
          "type": "tuple[]"
        }
      ],
      "stateMutability": "view",
      "type": "function"
    },
    {
      "inputs": [
        {
          "internalType": "uint256",
          "name": "_allowedTokenindex",
          "type": "uint256"
        }
      ],
      "name": "getAllowedTokens",
      "outputs": [
        {
          "internalType": "address",
          "name": "",
          "type": "address"
        }
      ],
      "stateMutability": "view",
      "type": "function"
    },
    {
      "inputs": [
        {
          "internalType": "address",
          "name": "_entrantAddress",
          "type": "address"
        }
      ],
      "name": "getEntrantSweepStakeIndexMapping",
      "outputs": [
        {
          "internalType": "uint256[]",
          "name": "",
          "type": "uint256[]"
        }
      ],
      "stateMutability": "view",
      "type": "function"
    },
    {
      "inputs": [
        {
          "internalType": "address",
          "name": "_stakerAddress",
          "type": "address"
        }
      ],
      "name": "getStakerSweepStakesIndexes",
      "outputs": [
        {
          "internalType": "uint256[]",
          "name": "",
          "type": "uint256[]"
        }
      ],
      "stateMutability": "view",
      "type": "function"
    },
    {
      "inputs": [
        {
          "internalType": "uint256",
          "name": "_sweepStakeIndex",
          "type": "uint256"
        }
      ],
      "name": "getSweepStake",
      "outputs": [
        {
          "components": [
            {
              "internalType": "uint32",
              "name": "maximumNoOfWinners",
              "type": "uint32"
            },
            {
              "internalType": "uint256",
              "name": "numberOfEntrants",
              "type": "uint256"
            },
            {
              "internalType": "uint256",
              "name": "startDateTime",
              "type": "uint256"
            },
            {
              "internalType": "uint256",
              "name": "endDateTime",
              "type": "uint256"
            },
            {
              "internalType": "uint256",
              "name": "amount",
              "type": "uint256"
            },
            {
              "internalType": "address",
              "name": "token",
              "type": "address"
            },
            {
              "internalType": "string",
              "name": "title",
              "type": "string"
            },
            {
              "internalType": "bool",
              "name": "isActive",
              "type": "bool"
            },
            {
              "internalType": "address[]",
              "name": "entrants",
              "type": "address[]"
            }
          ],
          "internalType": "struct SweepStake.SingleSweepStake",
          "name": "",
          "type": "tuple"
        }
      ],
      "stateMutability": "view",
      "type": "function"
    },
    {
      "inputs": [
        {
          "internalType": "uint256",
          "name": "_sweepStakeIndex",
          "type": "uint256"
        }
      ],
      "name": "initiateSelectionOfWinners",
      "outputs": [],
      "stateMutability": "nonpayable",
      "type": "function"
    },
    {
      "inputs": [
        {
          "internalType": "uint256",
          "name": "sweepStakesIndex",
          "type": "uint256"
        }
      ],
      "name": "joinAsEntrant",
      "outputs": [],
      "stateMutability": "nonpayable",
      "type": "function"
    },
    {
      "inputs": [
        {
          "internalType": "bytes",
          "name": "performData",
          "type": "bytes"
        }
      ],
      "name": "performUpkeep",
      "outputs": [],
      "stateMutability": "nonpayable",
      "type": "function"
    },
    {
      "inputs": [
        {
          "internalType": "uint256",
          "name": "requestId",
          "type": "uint256"
        },
        {
          "internalType": "uint256[]",
          "name": "randomWords",
          "type": "uint256[]"
        }
      ],
      "name": "rawFulfillRandomWords",
      "outputs": [],
      "stateMutability": "nonpayable",
      "type": "function"
    },
    {
      "inputs": [
        {
          "internalType": "uint256",
          "name": "_sweepStakeIndex",
          "type": "uint256"
        }
      ],
      "name": "setSingleSweepStakeToActive",
      "outputs": [],
      "stateMutability": "nonpayable",
      "type": "function"
    }
  ],
  "transactionHash": "0xd5c551de3cf1694c09a944de8ecbfb999d8e03506607046adc87b1a760d2e05f",
  "args": [
    "0x6168499c0cFfCaCD319c818142124B7A15E857ab",
    "3355",
    "0xd89b2bf150e3b9e13446986e571fb9cab24b13cea0a43ea20a6049a85cc807cc",
    "500000"
  ],
  "numDeployments": 1,
  "solcInputHash": "d834b86efc0736960f92b8bb9b216ba9",
  "bytecode": "0x6101406040523480156200001257600080fd5b506040516200429438038062004294833981810160405281019062000038919062000185565b838073ffffffffffffffffffffffffffffffffffffffff1660808173ffffffffffffffffffffffffffffffffffffffff1660601b81525050508373ffffffffffffffffffffffffffffffffffffffff1660c08173ffffffffffffffffffffffffffffffffffffffff1660601b815250508161010081815250508267ffffffffffffffff1660e08167ffffffffffffffff1660c01b815250508063ffffffff166101208163ffffffff1660e01b815250503373ffffffffffffffffffffffffffffffffffffffff1660a08173ffffffffffffffffffffffffffffffffffffffff1660601b8152505050505050620002c6565b6000815190506200013a816200025e565b92915050565b600081519050620001518162000278565b92915050565b600081519050620001688162000292565b92915050565b6000815190506200017f81620002ac565b92915050565b60008060008060808587031215620001a257620001a162000259565b5b6000620001b28782880162000129565b9450506020620001c5878288016200016e565b9350506040620001d88782880162000140565b9250506060620001eb8782880162000157565b91505092959194509250565b6000620002048262000215565b9050919050565b6000819050919050565b600073ffffffffffffffffffffffffffffffffffffffff82169050919050565b600063ffffffff82169050919050565b600067ffffffffffffffff82169050919050565b600080fd5b6200026981620001f7565b81146200027557600080fd5b50565b62000283816200020b565b81146200028f57600080fd5b50565b6200029d8162000235565b8114620002a957600080fd5b50565b620002b78162000245565b8114620002c357600080fd5b50565b60805160601c60a05160601c60c05160601c60e05160c01c610100516101205160e01c613f3e6200035660003960008181610eae0152610fcd015260008181610e6a0152610f89015260008181610e8b0152610faa015260008181610e2e0152610f4d01526000818161035d01528181610a7d0152611b4001526000818161043a015261048e0152613f3e6000f3fe608060405234801561001057600080fd5b50600436106101005760003560e01c80638bf4792511610097578063ce0a192711610066578063ce0a1927146102aa578063f318e557146102da578063f6cfb227146102f8578063fd7564fa1461032857610100565b80638bf479251461022257806390b9407b14610240578063af6385e114610270578063b4b64fcb1461028c57610100565b80634585e33b116100d35780634585e33b146101895780635eb51ed3146101a557806363a450d7146101c15780636e04ff0d146101f157610100565b8063171e44ea146101055780631fe543e31461012157806330a618061461013d578063381296cc14610159575b600080fd5b61011f600480360381019061011a9190612b19565b610344565b005b61013b60048036038101906101369190612cac565b610438565b005b61015760048036038101906101529190612d08565b6104f8565b005b610173600480360381019061016e9190612c52565b610963565b60405161018091906133fa565b60405180910390f35b6101a3600480360381019061019e9190612bbc565b6109ab565b005b6101bf60048036038101906101ba9190612c52565b610a64565b005b6101db60048036038101906101d69190612c52565b6110b2565b6040516101e89190613742565b60405180910390f35b61020b60048036038101906102069190612c09565b6112ce565b60405161021992919061351f565b60405180910390f35b61022a611851565b60405161023791906134c0565b60405180910390f35b61025a60048036038101906102559190612b19565b611a90565b60405161026791906134e2565b60405180910390f35b61028a60048036038101906102859190612c52565b611b27565b005b610294611bf6565b6040516102a1919061349e565b60405180910390f35b6102c460048036038101906102bf9190612b19565b611c84565b6040516102d19190613504565b60405180910390f35b6102e2611d33565b6040516102ef9190613764565b60405180910390f35b610312600480360381019061030d9190612b19565b611d3b565b60405161031f91906134e2565b60405180910390f35b610342600480360381019061033d9190612c52565b611dd2565b005b3373ffffffffffffffffffffffffffffffffffffffff167f000000000000000000000000000000000000000000000000000000000000000073ffffffffffffffffffffffffffffffffffffffff16146103d2576040517f08c379a00000000000000000000000000000000000000000000000000000000081526004016103c9906136a2565b60405180910390fd5b6004819080600181540180825580915050600190039060005260206000200160009091909190916101000a81548173ffffffffffffffffffffffffffffffffffffffff021916908373ffffffffffffffffffffffffffffffffffffffff16021790555050565b7f000000000000000000000000000000000000000000000000000000000000000073ffffffffffffffffffffffffffffffffffffffff163373ffffffffffffffffffffffffffffffffffffffff16146104ea57337f00000000000000000000000000000000000000000000000000000000000000006040517f1cf993f40000000000000000000000000000000000000000000000000000000081526004016104e1929190613415565b60405180910390fd5b6104f4828261233b565b5050565b6000831161053b576040517f08c379a0000000000000000000000000000000000000000000000000000000008152600401610532906136e2565b60405180910390fd5b61054481611c84565b610583576040517f08c379a000000000000000000000000000000000000000000000000000000000815260040161057a90613642565b60405180910390fd5b8385106105c5576040517f08c379a00000000000000000000000000000000000000000000000000000000081526004016105bc90613682565b60405180910390fd5b844210610607576040517f08c379a00000000000000000000000000000000000000000000000000000000081526004016105fe906135e2565b60405180910390fd5b60008663ffffffff1611610650576040517f08c379a0000000000000000000000000000000000000000000000000000000008152600401610647906136c2565b60405180910390fd5b8073ffffffffffffffffffffffffffffffffffffffff166323b872dd3330866040518463ffffffff1660e01b815260040161068d9392919061343e565b602060405180830381600087803b1580156106a757600080fd5b505af11580156106bb573d6000803e3d6000fd5b505050506040513d601f19601f820116820180604052508101906106df9190612b8f565b50600160003373ffffffffffffffffffffffffffffffffffffffff1673ffffffffffffffffffffffffffffffffffffffff16815260200190815260200160002060058054905090806001815401808255809150506001900390600052602060002001600090919091909150556005805490503373ffffffffffffffffffffffffffffffffffffffff167f2df60801511c0024e03e64956702a77644456f50c50b771df4aafb405b97d1f760405160405180910390a360056040518061012001604052808863ffffffff168152602001600081526020018781526020018681526020018581526020018373ffffffffffffffffffffffffffffffffffffffff168152602001848152602001600115158152602001600067ffffffffffffffff81111561080d5761080c613bc7565b5b60405190808252806020026020018201604052801561083b5781602001602082028036833780820191505090505b50815250908060018154018082558091505060019003906000526020600020906009020160009091909190915060008201518160000160006101000a81548163ffffffff021916908363ffffffff1602179055506020820151816001015560408201518160020155606082015181600301556080820151816004015560a08201518160050160006101000a81548173ffffffffffffffffffffffffffffffffffffffff021916908373ffffffffffffffffffffffffffffffffffffffff16021790555060c082015181600601908051906020019061091a929190612745565b5060e08201518160070160006101000a81548160ff0219169083151502179055506101008201518160080190805190602001906109589291906127cb565b505050505050505050565b60006004828154811061097957610978613b98565b5b9060005260206000200160009054906101000a900473ffffffffffffffffffffffffffffffffffffffff169050919050565b60006109c5604051806020016040528060008152506112ce565b50905080610a08576040517f08c379a00000000000000000000000000000000000000000000000000000000081526004016109ff906135a2565b60405180910390fd5b60608383810190610a199190612b46565b905060005b8151811015610a5d57610a4a828281518110610a3d57610a3c613b98565b5b6020026020010151610a64565b8080610a5590613a91565b915050610a1e565b5050505050565b3373ffffffffffffffffffffffffffffffffffffffff167f000000000000000000000000000000000000000000000000000000000000000073ffffffffffffffffffffffffffffffffffffffff1614610af2576040517f08c379a0000000000000000000000000000000000000000000000000000000008152600401610ae9906136a2565b60405180910390fd5b600060058281548110610b0857610b07613b98565b5b9060005260206000209060090201604051806101200160405290816000820160009054906101000a900463ffffffff1663ffffffff1663ffffffff168152602001600182015481526020016002820154815260200160038201548152602001600482015481526020016005820160009054906101000a900473ffffffffffffffffffffffffffffffffffffffff1673ffffffffffffffffffffffffffffffffffffffff1673ffffffffffffffffffffffffffffffffffffffff168152602001600682018054610bd690613a2e565b80601f0160208091040260200160405190810160405280929190818152602001828054610c0290613a2e565b8015610c4f5780601f10610c2457610100808354040283529160200191610c4f565b820191906000526020600020905b815481529060010190602001808311610c3257829003601f168201915b505050505081526020016007820160009054906101000a900460ff1615151515815260200160088201805480602002602001604051908101604052809291908181526020018280548015610cf857602002820191906000526020600020905b8160009054906101000a900473ffffffffffffffffffffffffffffffffffffffff1673ffffffffffffffffffffffffffffffffffffffff1681526020019060010190808311610cae575b505050505081525050905080604001514211610d49576040517f08c379a0000000000000000000000000000000000000000000000000000000008152600401610d4090613722565b60405180910390fd5b4281606001511115610d90576040517f08c379a0000000000000000000000000000000000000000000000000000000008152600401610d8790613602565b60405180910390fd5b8060e00151610dd4576040517f08c379a0000000000000000000000000000000000000000000000000000000008152600401610dcb906135c2565b60405180910390fd5b600060058381548110610dea57610de9613b98565b5b906000526020600020906009020160070160006101000a81548160ff021916908315150217905550600081610100015151826000015163ffffffff161015610f4b577f000000000000000000000000000000000000000000000000000000000000000073ffffffffffffffffffffffffffffffffffffffff16635d3b1d307f00000000000000000000000000000000000000000000000000000000000000007f000000000000000000000000000000000000000000000000000000000000000060037f000000000000000000000000000000000000000000000000000000000000000087600001516040518663ffffffff1660e01b8152600401610ef295949392919061354f565b602060405180830381600087803b158015610f0c57600080fd5b505af1158015610f20573d6000803e3d6000fd5b505050506040513d601f19601f82011682018060405250810190610f449190612c7f565b9050611068565b7f000000000000000000000000000000000000000000000000000000000000000073ffffffffffffffffffffffffffffffffffffffff16635d3b1d307f00000000000000000000000000000000000000000000000000000000000000007f000000000000000000000000000000000000000000000000000000000000000060037f0000000000000000000000000000000000000000000000000000000000000000876101000151516040518663ffffffff1660e01b815260040161101395949392919061354f565b602060405180830381600087803b15801561102d57600080fd5b505af1158015611041573d6000803e3d6000fd5b505050506040513d601f19601f820116820180604052508101906110659190612c7f565b90505b826000808381526020019081526020016000208190555082817ff0d0f916ccdd72ba1a7e83e613a7386a72ea1ee357ab638c458807be9511113c60405160405180910390a3505050565b6110ba612855565b600582815481106110ce576110cd613b98565b5b9060005260206000209060090201604051806101200160405290816000820160009054906101000a900463ffffffff1663ffffffff1663ffffffff168152602001600182015481526020016002820154815260200160038201548152602001600482015481526020016005820160009054906101000a900473ffffffffffffffffffffffffffffffffffffffff1673ffffffffffffffffffffffffffffffffffffffff1673ffffffffffffffffffffffffffffffffffffffff16815260200160068201805461119c90613a2e565b80601f01602080910402602001604051908101604052809291908181526020018280546111c890613a2e565b80156112155780601f106111ea57610100808354040283529160200191611215565b820191906000526020600020905b8154815290600101906020018083116111f857829003601f168201915b505050505081526020016007820160009054906101000a900460ff16151515158152602001600882018054806020026020016040519081016040528092919081815260200182805480156112be57602002820191906000526020600020905b8160009054906101000a900473ffffffffffffffffffffffffffffffffffffffff1673ffffffffffffffffffffffffffffffffffffffff1681526020019060010190808311611274575b5050505050815250509050919050565b60006060600080600090505b600580549050811015611540576000600582815481106112fd576112fc613b98565b5b9060005260206000209060090201604051806101200160405290816000820160009054906101000a900463ffffffff1663ffffffff1663ffffffff168152602001600182015481526020016002820154815260200160038201548152602001600482015481526020016005820160009054906101000a900473ffffffffffffffffffffffffffffffffffffffff1673ffffffffffffffffffffffffffffffffffffffff1673ffffffffffffffffffffffffffffffffffffffff1681526020016006820180546113cb90613a2e565b80601f01602080910402602001604051908101604052809291908181526020018280546113f790613a2e565b80156114445780601f1061141957610100808354040283529160200191611444565b820191906000526020600020905b81548152906001019060200180831161142757829003601f168201915b505050505081526020016007820160009054906101000a900460ff16151515158152602001600882018054806020026020016040519081016040528092919081815260200182805480156114ed57602002820191906000526020600020905b8160009054906101000a900473ffffffffffffffffffffffffffffffffffffffff1673ffffffffffffffffffffffffffffffffffffffff16815260200190600101908083116114a3575b505050505081525050905060008160e00151905060004283606001511090508180156115165750805b1561152a57848061152690613a91565b9550505b505050808061153890613a91565b9150506112da565b5060008167ffffffffffffffff81111561155d5761155c613bc7565b5b60405190808252806020026020018201604052801561158b5781602001602082028036833780820191505090505b509050600080600090505b60058054905081101561181c576000600582815481106115b9576115b8613b98565b5b9060005260206000209060090201604051806101200160405290816000820160009054906101000a900463ffffffff1663ffffffff1663ffffffff168152602001600182015481526020016002820154815260200160038201548152602001600482015481526020016005820160009054906101000a900473ffffffffffffffffffffffffffffffffffffffff1673ffffffffffffffffffffffffffffffffffffffff1673ffffffffffffffffffffffffffffffffffffffff16815260200160068201805461168790613a2e565b80601f01602080910402602001604051908101604052809291908181526020018280546116b390613a2e565b80156117005780601f106116d557610100808354040283529160200191611700565b820191906000526020600020905b8154815290600101906020018083116116e357829003601f168201915b505050505081526020016007820160009054906101000a900460ff16151515158152602001600882018054806020026020016040519081016040528092919081815260200182805480156117a957602002820191906000526020600020905b8160009054906101000a900473ffffffffffffffffffffffffffffffffffffffff1673ffffffffffffffffffffffffffffffffffffffff168152602001906001019080831161175f575b505050505081525050905060008160e00151905060004283606001511090508180156117d25750805b1561180657838686815181106117eb576117ea613b98565b5b602002602001018181525050848061180290613a91565b9550505b505050808061181490613a91565b915050611596565b5060008251119450848260405160200161183691906134e2565b60405160208183030381529060405294509450505050915091565b60606005805480602002602001604051908101604052809291908181526020016000905b82821015611a875783829060005260206000209060090201604051806101200160405290816000820160009054906101000a900463ffffffff1663ffffffff1663ffffffff168152602001600182015481526020016002820154815260200160038201548152602001600482015481526020016005820160009054906101000a900473ffffffffffffffffffffffffffffffffffffffff1673ffffffffffffffffffffffffffffffffffffffff1673ffffffffffffffffffffffffffffffffffffffff16815260200160068201805461194d90613a2e565b80601f016020809104026020016040519081016040528092919081815260200182805461197990613a2e565b80156119c65780601f1061199b576101008083540402835291602001916119c6565b820191906000526020600020905b8154815290600101906020018083116119a957829003601f168201915b505050505081526020016007820160009054906101000a900460ff1615151515815260200160088201805480602002602001604051908101604052809291908181526020018280548015611a6f57602002820191906000526020600020905b8160009054906101000a900473ffffffffffffffffffffffffffffffffffffffff1673ffffffffffffffffffffffffffffffffffffffff1681526020019060010190808311611a25575b50505050508152505081526020019060010190611875565b50505050905090565b6060600260008373ffffffffffffffffffffffffffffffffffffffff1673ffffffffffffffffffffffffffffffffffffffff168152602001908152602001600020805480602002602001604051908101604052809291908181526020018280548015611b1b57602002820191906000526020600020905b815481526020019060010190808311611b07575b50505050509050919050565b3373ffffffffffffffffffffffffffffffffffffffff167f000000000000000000000000000000000000000000000000000000000000000073ffffffffffffffffffffffffffffffffffffffff1614611bb5576040517f08c379a0000000000000000000000000000000000000000000000000000000008152600401611bac906136a2565b60405180910390fd5b600160058281548110611bcb57611bca613b98565b5b906000526020600020906009020160070160006101000a81548160ff02191690831515021790555050565b60606004805480602002602001604051908101604052809291908181526020018280548015611c7a57602002820191906000526020600020905b8160009054906101000a900473ffffffffffffffffffffffffffffffffffffffff1673ffffffffffffffffffffffffffffffffffffffff1681526020019060010190808311611c30575b5050505050905090565b6000806000905060005b600480549050811015611d29578373ffffffffffffffffffffffffffffffffffffffff1660048281548110611cc657611cc5613b98565b5b9060005260206000200160009054906101000a900473ffffffffffffffffffffffffffffffffffffffff1673ffffffffffffffffffffffffffffffffffffffff161415611d165760019150611d29565b8080611d2190613a91565b915050611c8e565b5080915050919050565b600047905090565b6060600160008373ffffffffffffffffffffffffffffffffffffffff1673ffffffffffffffffffffffffffffffffffffffff168152602001908152602001600020805480602002602001604051908101604052809291908181526020018280548015611dc657602002820191906000526020600020905b815481526020019060010190808311611db2575b50505050509050919050565b6005805490508110611e19576040517f08c379a0000000000000000000000000000000000000000000000000000000008152600401611e1090613622565b60405180910390fd5b600060058281548110611e2f57611e2e613b98565b5b9060005260206000209060090201604051806101200160405290816000820160009054906101000a900463ffffffff1663ffffffff1663ffffffff168152602001600182015481526020016002820154815260200160038201548152602001600482015481526020016005820160009054906101000a900473ffffffffffffffffffffffffffffffffffffffff1673ffffffffffffffffffffffffffffffffffffffff1673ffffffffffffffffffffffffffffffffffffffff168152602001600682018054611efd90613a2e565b80601f0160208091040260200160405190810160405280929190818152602001828054611f2990613a2e565b8015611f765780601f10611f4b57610100808354040283529160200191611f76565b820191906000526020600020905b815481529060010190602001808311611f5957829003601f168201915b505050505081526020016007820160009054906101000a900460ff161515151581526020016008820180548060200260200160405190810160405280929190818152602001828054801561201f57602002820191906000526020600020905b8160009054906101000a900473ffffffffffffffffffffffffffffffffffffffff1673ffffffffffffffffffffffffffffffffffffffff1681526020019060010190808311611fd5575b50505050508152505090506000600360003373ffffffffffffffffffffffffffffffffffffffff1673ffffffffffffffffffffffffffffffffffffffff168152602001908152602001600020600084815260200190815260200160002060009054906101000a900460ff16905080156120cd576040517f08c379a00000000000000000000000000000000000000000000000000000000081526004016120c490613702565b60405180910390fd5b81604001514211612113576040517f08c379a000000000000000000000000000000000000000000000000000000000815260040161210a90613722565b60405180910390fd5b81606001514210612159576040517f08c379a000000000000000000000000000000000000000000000000000000000815260040161215090613662565b60405180910390fd5b8160e0015161219d576040517f08c379a0000000000000000000000000000000000000000000000000000000008152600401612194906135c2565b60405180910390fd5b600583815481106121b1576121b0613b98565b5b9060005260206000209060090201600801339080600181540180825580915050600190039060005260206000200160009091909190916101000a81548173ffffffffffffffffffffffffffffffffffffffff021916908373ffffffffffffffffffffffffffffffffffffffff1602179055506001600360003373ffffffffffffffffffffffffffffffffffffffff1673ffffffffffffffffffffffffffffffffffffffff168152602001908152602001600020600085815260200190815260200160002060006101000a81548160ff021916908315150217905550600260003373ffffffffffffffffffffffffffffffffffffffff1673ffffffffffffffffffffffffffffffffffffffff168152602001908152602001600020839080600181540180825580915050600190039060005260206000200160009091909190915055823373ffffffffffffffffffffffffffffffffffffffff167f2b50157f62bbde562b6ad04cfa754bb0e69fef05deedad028d755ae13c4c5b7660405160405180910390a3505050565b600080600084815260200190815260200160002054905060006005828154811061236857612367613b98565b5b9060005260206000209060090201604051806101200160405290816000820160009054906101000a900463ffffffff1663ffffffff1663ffffffff168152602001600182015481526020016002820154815260200160038201548152602001600482015481526020016005820160009054906101000a900473ffffffffffffffffffffffffffffffffffffffff1673ffffffffffffffffffffffffffffffffffffffff1673ffffffffffffffffffffffffffffffffffffffff16815260200160068201805461243690613a2e565b80601f016020809104026020016040519081016040528092919081815260200182805461246290613a2e565b80156124af5780601f10612484576101008083540402835291602001916124af565b820191906000526020600020905b81548152906001019060200180831161249257829003601f168201915b505050505081526020016007820160009054906101000a900460ff161515151581526020016008820180548060200260200160405190810160405280929190818152602001828054801561255857602002820191906000526020600020905b8160009054906101000a900473ffffffffffffffffffffffffffffffffffffffff1673ffffffffffffffffffffffffffffffffffffffff168152602001906001019080831161250e575b505050505081525050905060008161010001519050600082610100015151836000015163ffffffff1610156125a857826000015163ffffffff1683608001516125a19190613937565b90506125c1565b8261010001515183608001516125be9190613937565b90505b60005b855181101561270e57600083518783815181106125e4576125e3613b98565b5b60200260200101516125f69190613ada565b9050600084828151811061260d5761260c613b98565b5b6020026020010151905060008660a0015173ffffffffffffffffffffffffffffffffffffffff1663a9059cbb83876040518363ffffffff1660e01b8152600401612658929190613475565b602060405180830381600087803b15801561267257600080fd5b505af1158015612686573d6000803e3d6000fd5b505050506040513d601f19601f820116820180604052508101906126aa9190612b8f565b905080156126f85787858373ffffffffffffffffffffffffffffffffffffffff167f03792c276507f12211f27685eebf0aac2f67084ad01034c28d5fe10754e69d6460405160405180910390a45b505050808061270690613a91565b9150506125c4565b5083817f866eb90c64567bd1a7e32b3c3d7c11949c860c1fb2962995a343015b3e87e6ac60405160405180910390a3505050505050565b82805461275190613a2e565b90600052602060002090601f01602090048101928261277357600085556127ba565b82601f1061278c57805160ff19168380011785556127ba565b828001600101855582156127ba579182015b828111156127b957825182559160200191906001019061279e565b5b5090506127c791906128bf565b5090565b828054828255906000526020600020908101928215612844579160200282015b828111156128435782518260006101000a81548173ffffffffffffffffffffffffffffffffffffffff021916908373ffffffffffffffffffffffffffffffffffffffff160217905550916020019190600101906127eb565b5b50905061285191906128bf565b5090565b604051806101200160405280600063ffffffff16815260200160008152602001600081526020016000815260200160008152602001600073ffffffffffffffffffffffffffffffffffffffff16815260200160608152602001600015158152602001606081525090565b5b808211156128d85760008160009055506001016128c0565b5090565b60006128ef6128ea846137a4565b61377f565b9050808382526020820190508285602086028201111561291257612911613c00565b5b60005b8581101561294257816129288882612ada565b845260208401935060208301925050600181019050612915565b5050509392505050565b600061295f61295a846137d0565b61377f565b90508281526020810184848401111561297b5761297a613c05565b5b6129868482856139ec565b509392505050565b60006129a161299c84613801565b61377f565b9050828152602081018484840111156129bd576129bc613c05565b5b6129c88482856139ec565b509392505050565b6000813590506129df81613eac565b92915050565b600082601f8301126129fa576129f9613bfb565b5b8135612a0a8482602086016128dc565b91505092915050565b600081519050612a2281613ec3565b92915050565b60008083601f840112612a3e57612a3d613bfb565b5b8235905067ffffffffffffffff811115612a5b57612a5a613bf6565b5b602083019150836001820283011115612a7757612a76613c00565b5b9250929050565b600082601f830112612a9357612a92613bfb565b5b8135612aa384826020860161294c565b91505092915050565b600082601f830112612ac157612ac0613bfb565b5b8135612ad184826020860161298e565b91505092915050565b600081359050612ae981613eda565b92915050565b600081519050612afe81613eda565b92915050565b600081359050612b1381613ef1565b92915050565b600060208284031215612b2f57612b2e613c0f565b5b6000612b3d848285016129d0565b91505092915050565b600060208284031215612b5c57612b5b613c0f565b5b600082013567ffffffffffffffff811115612b7a57612b79613c0a565b5b612b86848285016129e5565b91505092915050565b600060208284031215612ba557612ba4613c0f565b5b6000612bb384828501612a13565b91505092915050565b60008060208385031215612bd357612bd2613c0f565b5b600083013567ffffffffffffffff811115612bf157612bf0613c0a565b5b612bfd85828601612a28565b92509250509250929050565b600060208284031215612c1f57612c1e613c0f565b5b600082013567ffffffffffffffff811115612c3d57612c3c613c0a565b5b612c4984828501612a7e565b91505092915050565b600060208284031215612c6857612c67613c0f565b5b6000612c7684828501612ada565b91505092915050565b600060208284031215612c9557612c94613c0f565b5b6000612ca384828501612aef565b91505092915050565b60008060408385031215612cc357612cc2613c0f565b5b6000612cd185828601612ada565b925050602083013567ffffffffffffffff811115612cf257612cf1613c0a565b5b612cfe858286016129e5565b9150509250929050565b60008060008060008060c08789031215612d2557612d24613c0f565b5b6000612d3389828a01612b04565b9650506020612d4489828a01612ada565b9550506040612d5589828a01612ada565b9450506060612d6689828a01612ada565b935050608087013567ffffffffffffffff811115612d8757612d86613c0a565b5b612d9389828a01612aac565b92505060a0612da489828a016129d0565b9150509295509295509295565b6000612dbd8383612df5565b60208301905092915050565b6000612dd58383613208565b905092915050565b6000612de983836133af565b60208301905092915050565b612dfe81613968565b82525050565b612e0d81613968565b82525050565b6000612e1e82613862565b612e2881856138c0565b9350612e3383613832565b8060005b83811015612e64578151612e4b8882612db1565b9750612e5683613899565b925050600181019050612e37565b5085935050505092915050565b6000612e7c82613862565b612e8681856138d1565b9350612e9183613832565b8060005b83811015612ec2578151612ea98882612db1565b9750612eb483613899565b925050600181019050612e95565b5085935050505092915050565b6000612eda8261386d565b612ee481856138e2565b935083602082028501612ef685613842565b8060005b85811015612f325784840389528151612f138582612dc9565b9450612f1e836138a6565b925060208a01995050600181019050612efa565b50829750879550505050505092915050565b6000612f4f82613878565b612f5981856138f3565b9350612f6483613852565b8060005b83811015612f95578151612f7c8882612ddd565b9750612f87836138b3565b925050600181019050612f68565b5085935050505092915050565b612fab8161397a565b82525050565b612fba8161397a565b82525050565b612fc981613986565b82525050565b6000612fda82613883565b612fe48185613904565b9350612ff48185602086016139fb565b612ffd81613c14565b840191505092915050565b60006130138261388e565b61301d8185613915565b935061302d8185602086016139fb565b61303681613c14565b840191505092915050565b600061304e601183613926565b915061305982613c25565b602082019050919050565b6000613071601683613926565b915061307c82613c4e565b602082019050919050565b6000613094603f83613926565b915061309f82613c77565b604082019050919050565b60006130b7601983613926565b91506130c282613cc6565b602082019050919050565b60006130da601983613926565b91506130e582613cef565b602082019050919050565b60006130fd601f83613926565b915061310882613d18565b602082019050919050565b6000613120601583613926565b915061312b82613d41565b602082019050919050565b6000613143603583613926565b915061314e82613d6a565b604082019050919050565b6000613166602083613926565b915061317182613db9565b602082019050919050565b6000613189603383613926565b915061319482613de2565b604082019050919050565b60006131ac601c83613926565b91506131b782613e31565b602082019050919050565b60006131cf601a83613926565b91506131da82613e5a565b602082019050919050565b60006131f2601b83613926565b91506131fd82613e83565b602082019050919050565b60006101208301600083015161322160008601826133cd565b50602083015161323460208601826133af565b50604083015161324760408601826133af565b50606083015161325a60608601826133af565b50608083015161326d60808601826133af565b5060a083015161328060a0860182612df5565b5060c083015184820360c08601526132988282613008565b91505060e08301516132ad60e0860182612fa2565b506101008301518482036101008601526132c78282612e13565b9150508091505092915050565b6000610120830160008301516132ed60008601826133cd565b50602083015161330060208601826133af565b50604083015161331360408601826133af565b50606083015161332660608601826133af565b50608083015161333960808601826133af565b5060a083015161334c60a0860182612df5565b5060c083015184820360c08601526133648282613008565b91505060e083015161337960e0860182612fa2565b506101008301518482036101008601526133938282612e13565b9150508091505092915050565b6133a981613990565b82525050565b6133b8816139be565b82525050565b6133c7816139be565b82525050565b6133d6816139c8565b82525050565b6133e5816139c8565b82525050565b6133f4816139d8565b82525050565b600060208201905061340f6000830184612e04565b92915050565b600060408201905061342a6000830185612e04565b6134376020830184612e04565b9392505050565b60006060820190506134536000830186612e04565b6134606020830185612e04565b61346d60408301846133be565b949350505050565b600060408201905061348a6000830185612e04565b61349760208301846133be565b9392505050565b600060208201905081810360008301526134b88184612e71565b905092915050565b600060208201905081810360008301526134da8184612ecf565b905092915050565b600060208201905081810360008301526134fc8184612f44565b905092915050565b60006020820190506135196000830184612fb1565b92915050565b60006040820190506135346000830185612fb1565b81810360208301526135468184612fcf565b90509392505050565b600060a0820190506135646000830188612fc0565b61357160208301876133eb565b61357e60408301866133a0565b61358b60608301856133dc565b61359860808301846133dc565b9695505050505050565b600060208201905081810360008301526135bb81613041565b9050919050565b600060208201905081810360008301526135db81613064565b9050919050565b600060208201905081810360008301526135fb81613087565b9050919050565b6000602082019050818103600083015261361b816130aa565b9050919050565b6000602082019050818103600083015261363b816130cd565b9050919050565b6000602082019050818103600083015261365b816130f0565b9050919050565b6000602082019050818103600083015261367b81613113565b9050919050565b6000602082019050818103600083015261369b81613136565b9050919050565b600060208201905081810360008301526136bb81613159565b9050919050565b600060208201905081810360008301526136db8161317c565b9050919050565b600060208201905081810360008301526136fb8161319f565b9050919050565b6000602082019050818103600083015261371b816131c2565b9050919050565b6000602082019050818103600083015261373b816131e5565b9050919050565b6000602082019050818103600083015261375c81846132d4565b905092915050565b600060208201905061377960008301846133be565b92915050565b600061378961379a565b90506137958282613a60565b919050565b6000604051905090565b600067ffffffffffffffff8211156137bf576137be613bc7565b5b602082029050602081019050919050565b600067ffffffffffffffff8211156137eb576137ea613bc7565b5b6137f482613c14565b9050602081019050919050565b600067ffffffffffffffff82111561381c5761381b613bc7565b5b61382582613c14565b9050602081019050919050565b6000819050602082019050919050565b6000819050602082019050919050565b6000819050602082019050919050565b600081519050919050565b600081519050919050565b600081519050919050565b600081519050919050565b600081519050919050565b6000602082019050919050565b6000602082019050919050565b6000602082019050919050565b600082825260208201905092915050565b600082825260208201905092915050565b600082825260208201905092915050565b600082825260208201905092915050565b600082825260208201905092915050565b600082825260208201905092915050565b600082825260208201905092915050565b6000613942826139be565b915061394d836139be565b92508261395d5761395c613b3a565b5b828204905092915050565b60006139738261399e565b9050919050565b60008115159050919050565b6000819050919050565b600061ffff82169050919050565b600073ffffffffffffffffffffffffffffffffffffffff82169050919050565b6000819050919050565b600063ffffffff82169050919050565b600067ffffffffffffffff82169050919050565b82818337600083830152505050565b60005b83811015613a195780820151818401526020810190506139fe565b83811115613a28576000848401525b50505050565b60006002820490506001821680613a4657607f821691505b60208210811415613a5a57613a59613b69565b5b50919050565b613a6982613c14565b810181811067ffffffffffffffff82111715613a8857613a87613bc7565b5b80604052505050565b6000613a9c826139be565b91507fffffffffffffffffffffffffffffffffffffffffffffffffffffffffffffffff821415613acf57613ace613b0b565b5b600182019050919050565b6000613ae5826139be565b9150613af0836139be565b925082613b0057613aff613b3a565b5b828206905092915050565b7f4e487b7100000000000000000000000000000000000000000000000000000000600052601160045260246000fd5b7f4e487b7100000000000000000000000000000000000000000000000000000000600052601260045260246000fd5b7f4e487b7100000000000000000000000000000000000000000000000000000000600052602260045260246000fd5b7f4e487b7100000000000000000000000000000000000000000000000000000000600052603260045260246000fd5b7f4e487b7100000000000000000000000000000000000000000000000000000000600052604160045260246000fd5b600080fd5b600080fd5b600080fd5b600080fd5b600080fd5b600080fd5b6000601f19601f8301169050919050565b7f55706b656570206e6f74206e6565646564000000000000000000000000000000600082015250565b7f53776565705374616b653a206e6f742061637469766500000000000000000000600082015250565b7f53776565705374616b653a207374617274206461746554696d65206973206c6f60008201527f776572207468616e2063757272656e7420626c6f636b206461746554696d6500602082015250565b7f53776565705374616b653a20686173206e6f7420656e64656400000000000000600082015250565b7f53776565705374616b653a20696e76616c696420696e64657800000000000000600082015250565b7f53776565705374616b653a20746f6b656e206e6f7420737570706f7274656400600082015250565b7f53776565705374616b653a2068617320656e6465640000000000000000000000600082015250565b7f53776565705374616b653a20656e64206461746554696d65206973206c6f776560008201527f72207468616e207374617274206461746554696d650000000000000000000000602082015250565b7f4f776e61626c653a2063616c6c6572206973206e6f7420746865206f776e6572600082015250565b7f53776565705374616b653a206d6178696d756d206e756d626572206f6620776960008201527f6e6e657273206c657373207468616e206f6e6500000000000000000000000000602082015250565b7f53776565705374616b653a20616d6f756e7420746f6f20736d616c6c00000000600082015250565b7f53776565705374616b653a20616c7265616479206a6f696e6564000000000000600082015250565b7f53776565705374616b653a20686173206e6f7420737461727465640000000000600082015250565b613eb581613968565b8114613ec057600080fd5b50565b613ecc8161397a565b8114613ed757600080fd5b50565b613ee3816139be565b8114613eee57600080fd5b50565b613efa816139c8565b8114613f0557600080fd5b5056fea2646970667358221220070080f1724e7a106914d8710a65c67b0b2dd292895eb7ac6af0c7c6651a7fd464736f6c63430008070033",
  "devdoc": {
    "kind": "dev",
    "methods": {
      "performUpkeep(bytes)": {
        "details": "The input to this method should not be trusted, and the caller of the method should not even be restricted to any single registry. Anyone should be able call it, and the input should be validated, there is no guarantee that the data passed in is the performData returned from checkUpkeep. This could happen due to malicious keepers, racing keepers, or simply a state change while the performUpkeep transaction is waiting for confirmation. Always validate the data passed in.",
        "params": {
          "performData": "is the data which was passed back from the checkData simulation. If it is encoded, it can easily be decoded into other types by calling `abi.decode`. This data should not be trusted, and should be validated against the contract's current state."
        }
      }
    },
    "version": 1
  },
  "userdoc": {
    "kind": "user",
    "methods": {
      "performUpkeep(bytes)": {
        "notice": "method that is actually executed by the keepers, via the registry. The data returned by the checkUpkeep simulation will be passed into this method to actually be executed."
      }
    },
    "version": 1
  },
  "storageLayout": {
    "storage": [
      {
        "astId": 278,
        "contract": "contracts/SweepStake.sol:SweepStake",
        "label": "requestIdToSweepStakerList",
        "offset": 0,
        "slot": "0",
        "type": "t_mapping(t_uint256,t_uint256)"
      },
      {
        "astId": 283,
        "contract": "contracts/SweepStake.sol:SweepStake",
        "label": "stakerSweepStakeIndexMapping",
        "offset": 0,
        "slot": "1",
        "type": "t_mapping(t_address,t_array(t_uint256)dyn_storage)"
      },
      {
        "astId": 288,
        "contract": "contracts/SweepStake.sol:SweepStake",
        "label": "entrantSweepStakeIndexMapping",
        "offset": 0,
        "slot": "2",
        "type": "t_mapping(t_address,t_array(t_uint256)dyn_storage)"
      },
      {
        "astId": 294,
        "contract": "contracts/SweepStake.sol:SweepStake",
        "label": "entrantsSweepStakeMapping",
        "offset": 0,
        "slot": "3",
        "type": "t_mapping(t_address,t_mapping(t_uint256,t_bool))"
      },
      {
        "astId": 297,
        "contract": "contracts/SweepStake.sol:SweepStake",
        "label": "s_allowedTokens",
        "offset": 0,
        "slot": "4",
        "type": "t_array(t_address)dyn_storage"
      },
      {
        "astId": 301,
        "contract": "contracts/SweepStake.sol:SweepStake",
        "label": "s_sweepStakes",
        "offset": 0,
        "slot": "5",
        "type": "t_array(t_struct(SingleSweepStake)274_storage)dyn_storage"
      }
    ],
    "types": {
      "t_address": {
        "encoding": "inplace",
        "label": "address",
        "numberOfBytes": "20"
      },
      "t_array(t_address)dyn_storage": {
        "base": "t_address",
        "encoding": "dynamic_array",
        "label": "address[]",
        "numberOfBytes": "32"
      },
      "t_array(t_struct(SingleSweepStake)274_storage)dyn_storage": {
        "base": "t_struct(SingleSweepStake)274_storage",
        "encoding": "dynamic_array",
        "label": "struct SweepStake.SingleSweepStake[]",
        "numberOfBytes": "32"
      },
      "t_array(t_uint256)dyn_storage": {
        "base": "t_uint256",
        "encoding": "dynamic_array",
        "label": "uint256[]",
        "numberOfBytes": "32"
      },
      "t_bool": {
        "encoding": "inplace",
        "label": "bool",
        "numberOfBytes": "1"
      },
      "t_mapping(t_address,t_array(t_uint256)dyn_storage)": {
        "encoding": "mapping",
        "key": "t_address",
        "label": "mapping(address => uint256[])",
        "numberOfBytes": "32",
        "value": "t_array(t_uint256)dyn_storage"
      },
      "t_mapping(t_address,t_mapping(t_uint256,t_bool))": {
        "encoding": "mapping",
        "key": "t_address",
        "label": "mapping(address => mapping(uint256 => bool))",
        "numberOfBytes": "32",
        "value": "t_mapping(t_uint256,t_bool)"
      },
      "t_mapping(t_uint256,t_bool)": {
        "encoding": "mapping",
        "key": "t_uint256",
        "label": "mapping(uint256 => bool)",
        "numberOfBytes": "32",
        "value": "t_bool"
      },
      "t_mapping(t_uint256,t_uint256)": {
        "encoding": "mapping",
        "key": "t_uint256",
        "label": "mapping(uint256 => uint256)",
        "numberOfBytes": "32",
        "value": "t_uint256"
      },
      "t_string_storage": {
        "encoding": "bytes",
        "label": "string",
        "numberOfBytes": "32"
      },
      "t_struct(SingleSweepStake)274_storage": {
        "encoding": "inplace",
        "label": "struct SweepStake.SingleSweepStake",
        "members": [
          {
            "astId": 256,
            "contract": "contracts/SweepStake.sol:SweepStake",
            "label": "maximumNoOfWinners",
            "offset": 0,
            "slot": "0",
            "type": "t_uint32"
          },
          {
            "astId": 258,
            "contract": "contracts/SweepStake.sol:SweepStake",
            "label": "numberOfEntrants",
            "offset": 0,
            "slot": "1",
            "type": "t_uint256"
          },
          {
            "astId": 260,
            "contract": "contracts/SweepStake.sol:SweepStake",
            "label": "startDateTime",
            "offset": 0,
            "slot": "2",
            "type": "t_uint256"
          },
          {
            "astId": 262,
            "contract": "contracts/SweepStake.sol:SweepStake",
            "label": "endDateTime",
            "offset": 0,
            "slot": "3",
            "type": "t_uint256"
          },
          {
            "astId": 264,
            "contract": "contracts/SweepStake.sol:SweepStake",
            "label": "amount",
            "offset": 0,
            "slot": "4",
            "type": "t_uint256"
          },
          {
            "astId": 266,
            "contract": "contracts/SweepStake.sol:SweepStake",
            "label": "token",
            "offset": 0,
            "slot": "5",
            "type": "t_address"
          },
          {
            "astId": 268,
            "contract": "contracts/SweepStake.sol:SweepStake",
            "label": "title",
            "offset": 0,
            "slot": "6",
            "type": "t_string_storage"
          },
          {
            "astId": 270,
            "contract": "contracts/SweepStake.sol:SweepStake",
            "label": "isActive",
            "offset": 0,
            "slot": "7",
            "type": "t_bool"
          },
          {
            "astId": 273,
            "contract": "contracts/SweepStake.sol:SweepStake",
            "label": "entrants",
            "offset": 0,
            "slot": "8",
            "type": "t_array(t_address)dyn_storage"
          }
        ],
        "numberOfBytes": "288"
      },
      "t_uint256": {
        "encoding": "inplace",
        "label": "uint256",
        "numberOfBytes": "32"
      },
      "t_uint32": {
        "encoding": "inplace",
        "label": "uint32",
        "numberOfBytes": "4"
      }
    }
  }
}